:100000000C942A000C943F000C943F000C943F0089
:100010000C943F000C943F000C943F000C943F0064
:100020000C943F000C943F000C943F000C943F0054
:100030000C943F000C943F000C943F000C943F0044
:100040000C943F000C943F000C943F000C943F0034
:100050000C943F0011241FBECFE5D8E0DEBFCDBF1A
:1000600010E0A0E6B0E0ECECFFE302C005900D92DA
:10007000AE36B107D9F70E94CA1C0C94E41F0C9449
:100080000000CF93DF9300D0CDB7DEB79A8389838A
:100090008BE290E042E0FC0140838AE290E048E19C
:1000A000FC01408380E490E040E8FC01408380E470
:1000B00090E0FC018081582F89819A81FC01818127
:1000C000882F90E082959295907F9827807F98273F
:1000D000482F407189819A81FC018181882F90E0AD
:1000E000382F369536953695282F2295220F207E6B
:1000F000822F8074842B252F282B80E490E0FC0134
:10010000208380E490E0FC018081282F89819A81FE
:10011000FC018281882F90E0880F991F880F991F1A
:10012000880F991F282B80E490E0FC01208380E455
:1001300090E0FC018081382F89819A81FC018081C7
:10014000882F90E0880F991F282F227089819A812B
:10015000FC018081882F90E0880F991F880F991FDC
:100160008870822B232F282B80E490E0FC012083D1
:1001700089819A81FC012381348189E290E0FC012C
:10018000208389819A81FC0183819481292F3327DF
:1001900080E490E0FC01208300000F900F90DF913D
:1001A000CF910895CF93DF930F92CDB7DEB78983B8
:1001B00000008BE290E0FC018081882F90E080724B
:1001C0009927892BB1F38CE290E02981FC012083EF
:1001D00000000F90DF91CF910895CF93DF93CDB7BB
:1001E000DEB700008BE290E0FC0180818823D4F729
:1001F0008CE290E0FC018081DF91CF910895CF9354
:10020000DF9300D000D0CDB7DEB79C838B831A82FA
:1002100019820FC089819A812B813C81820F931FA3
:10022000FC0180810E94D20089819A8101969A8383
:10023000898389819A812B813C81820F931FFC01E4
:100240008081882339F783E20E94D20000000F905A
:100250000F900F900F90DF91CF9108950F931F9300
:10026000CF93DF9300D000D0CDB7DEB79C838B83D4
:100270000E94ED00282F8B819C81FC01208310C0FF
:1002800089819A8101969A83898389819A812B81B8
:100290003C818901080F191F0E94ED00F80180833D
:1002A00089819A812B813C81820F931FFC0180817F
:1002B000833231F789819A812B813C81820F931F90
:1002C000FC01108200000F900F900F900F90DF91B3
:1002D000CF911F910F910895CF93DF9300D00F928C
:1002E000CDB7DEB789836A834B838A81883008F073
:1002F000DBC08B81813009F067C08981882F90E055
:1003000082309105A9F1833091050CF047C0009728
:1003100019F00197B9F042C08AE390E0FC018081B6
:10032000482F8A81282F30E081E090E002C0880FBA
:10033000991F2A95E2F7242F282B8AE390E0FC01ED
:100340002083B2C087E390E0FC018081482F8A813E
:10035000282F30E081E090E002C0880F991F2A9595
:10036000E2F7242F282B87E390E0FC0120839CC038
:1003700084E390E0FC018081482F8A81282F30E0BF
:1003800081E090E002C0880F991F2A95E2F7242FA0
:10039000282B84E390E0FC01208386C081E390E079
:1003A000FC018081482F8A81282F30E081E090E095
:1003B00002C0880F991F2A95E2F7242F282B81E38A
:1003C00090E0FC01208370C08B81882309F06BC012
:1003D0008981882F90E082309105B9F183309105B1
:1003E0000CF04AC0009719F00197C1F045C08AE3AC
:1003F00090E0FC018081482F8A81282F30E081E045
:1004000090E002C0880F991F2A95E2F78095242F6B
:1004100028238AE390E0FC01208346C087E390E034
:10042000FC018081482F8A81282F30E081E090E014
:1004300002C0880F991F2A95E2F78095242F282360
:1004400087E390E0FC0120832FC084E390E0FC016F
:100450008081482F8A81282F30E081E090E002C01F
:10046000880F991F2A95E2F78095242F282384E38B
:1004700090E0FC01208318C081E390E0FC018081C2
:10048000482F8A81282F30E081E090E002C0880F59
:10049000991F2A95E2F78095242F282381E390E085
:1004A000FC01208301C0000000000F900F900F900E
:1004B000DF91CF910895CF93DF9300D0CDB7DEB712
:1004C00089836A838981843030F58981882F90E01F
:1004D00082309105A1F083309105BCF4009719F0AA
:1004E000019739F012C08AE390E02A81FC01208351
:1004F00012C087E390E02A81FC0120830CC084E3D2
:1005000090E02A81FC01208306C081E390E02A81EB
:10051000FC012083000000000F900F90DF91CF912D
:100520000895CF93DF9300D00F92CDB7DEB78983C4
:100530006A834B838A81883008F0E1C08B818130E7
:1005400021F08B81882309F0DBC08B81813009F099
:1005500067C08981882F90E082309105A9F18330AE
:1005600091050CF047C0009719F00197B9F042C00F
:100570008BE390E0FC018081482F8A81282F30E0B6
:1005800081E090E002C0880F991F2A95E2F7242F9E
:10059000282B8BE390E0FC012083B2C088E390E03D
:1005A000FC018081482F8A81282F30E081E090E093
:1005B00002C0880F991F2A95E2F7242F282B88E381
:1005C00090E0FC0120839CC085E390E0FC018081E9
:1005D000482F8A81282F30E081E090E002C0880F08
:1005E000991F2A95E2F7242F282B85E390E0FC0140
:1005F000208386C082E390E0FC018081482F8A81BD
:10060000282F30E081E090E002C0880F991F2A95E2
:10061000E2F7242F282B82E390E0FC01208370C0B6
:100620008B81882309F06BC08981882F90E082300C
:100630009105B9F1833091050CF04AC0009719F08B
:100640000197C1F045C08BE390E0FC018081482F09
:100650008A81282F30E081E090E002C0880F991F46
:100660002A95E2F78095242F28238BE390E0FC0164
:10067000208346C088E390E0FC018081482F8A8176
:10068000282F30E081E090E002C0880F991F2A9562
:10069000E2F78095242F282388E390E0FC01208353
:1006A0002FC085E390E0FC018081482F8A81282FAC
:1006B00030E081E090E002C0880F991F2A95E2F7B0
:1006C0008095242F282385E390E0FC01208318C027
:1006D00082E390E0FC018081482F8A81282F30E05E
:1006E00081E090E002C0880F991F2A95E2F780957B
:1006F000242F282382E390E0FC01208301C0000026
:1007000000000F900F900F90DF91CF910895CF933D
:10071000DF9300D0CDB7DEB789836A8389818430C7
:1007200030F58981882F90E082309105A1F08330E7
:100730009105BCF4009719F0019739F012C08BE3D2
:1007400090E02A81FC01208312C088E390E02A8196
:10075000FC0120830CC085E390E02A81FC0120830A
:1007600006C082E390E02A81FC01208300000000A3
:100770000F900F90DF91CF910895CF93DF9300D02A
:10078000CDB7DEB789836A838A81883010F080E034
:100790004DC08981882F90E08230910541F18330EE
:1007A0009105ACF5009719F0019789F030C089E305
:1007B00090E0FC018081882F90E02A81222F30E098
:1007C00002C0959587952A95E2F781702FC086E340
:1007D00090E0FC018081882F90E02A81222F30E078
:1007E00002C0959587952A95E2F781701FC083E333
:1007F00090E0FC018081882F90E02A81222F30E058
:1008000002C0959587952A95E2F781700FC080E325
:1008100090E0FC018081882F90E02A81222F30E037
:1008200002C0959587952A95E2F781700F900F90F9
:10083000DF91CF910895CF93DF930F92CDB7DEB7BD
:1008400089838981843010F080E021C08981882FDC
:1008500090E08230910591F083309105A4F40097E7
:1008600019F0019731F00FC089E390E0FC0180811D
:100870000EC086E390E0FC01808109C083E390E034
:10088000FC01808104C083E390E0FC0180810F9033
:10089000DF91CF910895CF93DF9300D0CDB7DEB72E
:1008A0009A83898389819A81FC018081882F90E0D5
:1008B000382F36953695282F2295220F220F207C2F
:1008C00087E290E0FC01208389819A81FC012181EB
:1008D00086E290E02770FC01208386E290E0FC0134
:1008E000208186E290E02068FC01208300000F90C8
:1008F0000F90DF91CF910895CF93DF930F92CDB7F3
:10090000DEB7898389818770898387E290E0FC0163
:10091000208187E290E0207EFC01208387E290E046
:10092000FC01308187E290E02981232BFC012083A8
:1009300086E290E0FC01208186E290E02064FC01E8
:100940002083000086E290E0FC018081882F90E007
:1009500080719927892BB1F386E290E0FC01208118
:1009600086E290E02061FC01208384E290E0FC01BB
:10097000808191810F90DF91CF910895CF93DF9384
:10098000CDB7DEB7C454D1090FB6F894DEBF0FBEA1
:10099000CDBF41E061E080E00E946C0141E062E097
:1009A00080E00E946C0180E090E0A0EAB1E48F87D3
:1009B000988BA98BBA8B20E030E04AE755E46F852D
:1009C000788989899A890E94371F6DA37EA38FA396
:1009D00098A78DA19EA1AFA1B8A58B8B9C8BAD8B49
:1009E000BE8B20E030E040E85FE36B897C898D8935
:1009F0009E890E94DA1D88232CF481E090E0988F74
:100A00008F8B54C020E03FEF4FE757E46B897C8920
:100A10008D899E890E94321F1816D4F520E030E09F
:100A200040E251E46F85788989899A890E94371F4D
:100A300069A77AA78BA79CA789A59AA5ABA5BCA5F2
:100A400089A39AA3ABA3BCA369A17AA18BA19CA102
:100A50000E94511E6DA77EA78FA798ABADA5BEA51E
:100A6000B88FAF8B10C080E991E09A8F898F898D04
:100A70009A8D0197F1F79A8F898F00008F89988D51
:100A80000197988F8F8B8F89988D892B61F719C06B
:100A90006B897C898D899E890E94511E69AB7AABD6
:100AA0008BAB9CAB89A99AA9988F8F8B8F89988DD6
:100AB0009C8F8B8F8B8D9C8D0197F1F79C8F8B8FEB
:100AC000000041E063E080E00E946C0141E064E0EE
:100AD00080E00E946C0141E065E080E00E946C01D2
:100AE00041E066E080E00E946C0180E090E0A0EAD6
:100AF000B1E489839A83AB83BC8320E030E04AE78A
:100B000055E469817A818B819C810E94371F6DAB8E
:100B10007EAB8FAB98AF8DA99EA9AFA9B8AD8D83E1
:100B20009E83AF83B88720E030E040E85FE36D81CB
:100B30007E818F8198850E94DA1D88232CF481E0C4
:100B400090E09A8789875BC020E03FEF4FE757E44A
:100B50006D817E818F8198850E94321F18160CF05E
:100B60003CC020E030E040E251E469817A818B8131
:100B70009C810E94371F69AF7AAF8BAF9CAF89AD64
:100B80009AADABADBCAD8D8F9E8FAF8FB8A36D8D81
:100B90007E8D8F8D98A10E94511E21966CAF7DAFE6
:100BA0008EAF9FAF2197ADADBEADBA87A98710C0FC
:100BB00080E991E09C878B878B859C850197F1F775
:100BC0009C878B87000089859A8501979A878987FA
:100BD00089859A85892B61F71DC06D817E818F8102
:100BE00098850E94511E25966CAF7DAF8EAF9FAF4A
:100BF000259723968EAD9FAD23979A878987898500
:100C00009A859E878D878D859E850197F1F79E87B2
:100C10008D87000083E30E94240682E30E9424065D
:100C200088E20E9424068CE00E94240681E00E9453
:100C300024060000CC5BDF4F0FB6F894DEBF0FBE7A
:100C4000CDBFDF91CF9108950F931F93CF93DF9383
:100C5000CDB7DEB7CD5AD1400FB6F894DEBF0FBE88
:100C6000CDBF9E0123543F4FD9018C9340E061E0FA
:100C700080E00E9491029E0123563F4F80E090E069
:100C8000A0E8BFE3F90180839183A283B3838E013F
:100C90000F551F4FCE0183569F4F2BEA3AEA4AEA7F
:100CA00050E4DC016D917D918D919C910E94371FE4
:100CB000C652DF4F688379838A839B83CA5DD040A5
:100CC000C652DF4F88819981AA81BB81CA5DD0401D
:100CD000F80180839183A283B3838E010B551F4F4C
:100CE000CE0183569F4F20E030E040E850E4DC0125
:100CF0006D917D918D919C910E94371FC252DF4F63
:100D0000688379838A839B83CE5DD040C252DF4F54
:100D100088819981AA81BB81CE5DD040F801808312
:100D20009183A283B383CE018F559F4F20E030E0A3
:100D300040E85FE3DC016D917D918D919C910E9473
:100D4000DA1D88233CF4CE0187559F4F21E0FC013A
:100D500020839AC1CE018B559F4F20E03FEF4FE794
:100D600057E4DC016D917D918D919C910E94321F21
:100D700018160CF023C1CE0183569F4F20E030E0BF
:100D80004AE754E4FC0160817181828193810E9471
:100D9000DF1DCE51DF4F688379838A839B83C25ED8
:100DA000D040CE51DF4F88819981AA81BB81C25E3C
:100DB000D0409E0126553F4FF90180839183A28345
:100DC000B3838E0102551F4FCE0186559F4F20E001
:100DD00030E04AE755E4DC016D917D918D919C9165
:100DE0000E94371FCA51DF4F688379838A839B83B0
:100DF000C65ED040CA51DF4F88819981AA81BB81EC
:100E0000C65ED040F80180839183A283B383CE0174
:100E100082559F4F20E030E040E85FE3DC016D91B8
:100E20007D918D919C910E94DA1D88234CF4CE0116
:100E30008E549F4F21E030E0FC0131832083A2C01B
:100E4000CE0182559F4F20E03FEF4FE757E4DC0192
:100E50006D917D918D919C910E94321F18160CF01E
:100E600073C0CE0186559F4F20E030E040E251E450
:100E7000FC0160817181828193810E94371FC6517C
:100E8000DF4F688379838A839B83CA5ED040C651D3
:100E9000DF4F88819981AA81BB81CA5ED040CA5246
:100EA000DF4F88839983AA83BB83C65DD0408E01C0
:100EB0000E541F4FCA52DF4F688179818A819B810E
:100EC000C65DD0400E94511EC251DF4F68837983B6
:100ED0008A839B83CE5ED040C251DF4FE881F98187
:100EE000CE5ED040D801ED93FC9325C0CE018C544A
:100EF0009F4F20E931E0DC012D933C93CE018C54CF
:100F00009F4FFC01808191810197F1F79E012C5444
:100F10003F4FD9018D939C930000CE018E549F4F7B
:100F20009E012E543F4FF90120813181215031091A
:100F3000DC012D933C93CE018E549F4FFC018081A8
:100F40009181892B99F639C08E010E541F4FCE0125
:100F500082559F4FDC016D917D918D919C910E94F6
:100F6000511ECE50DF4F688379838A839B83C25F93
:100F7000D040CE50DF4F88819981C25FD040F801C8
:100F800091838083CE018A549F4F9E012E543F4F00
:100F9000D9012D913C91FC0131832083CE018A54EB
:100FA0009F4FDC018D919C910197F1F79E012A548E
:100FB0003F4FF9019183808300007EC0CE018F55A1
:100FC0009F4F20E030E04FE753E4DC016D917D91CD
:100FD0008D919C910E94321F1816D4F58E010854F1
:100FE0001F4FCE018B559F4FFC0160817181828123
:100FF00093810E94511ECA50DF4F688379838A8390
:101000009B83C65FD040CA50DF4FE881F981C65F3D
:10101000D040D801ED93FC93CE0186549F4F9E01A2
:1010200028543F4FD9012D913C91FC0131832083FD
:10103000CE0186549F4FDC018D919C910197F1F771
:101040009E0126543F4FF90191838083000034C0F4
:101050008E0107551F4FCE018F559F4FDC016D91BB
:101060007D918D919C910E94511EC650DF4F6883E7
:1010700079838A839B83CA5FD040C650DF4F8881C3
:10108000CA5FD040F8018083CE0184549F4F9E01F7
:1010900027553F4FD9012C91FC012083CE01845468
:1010A0009F4FDC018C91282F2A95F1F7CE018454B3
:1010B0009F4FFC012083000041E062E080E00E943D
:1010C00091029E0123583F4F80E090E0A0E8BFE3EB
:1010D000F90180839183A283B3838E010F571F4F41
:1010E000CE0183589F4F2BEA3AEA4AEA50E4DC01EA
:1010F0006D917D918D919C910E94371FC250DF4F61
:10110000688379838A839B83CE5FD040C250DF4F50
:1011100088819981AA81BB81CE5FD040F80180830C
:101120009183A283B3838E010B571F4FCE01835847
:101130009F4F20E030E040E850E4DC016D917D916C
:101140008D919C910E94371FCE5FDE4F688379831B
:101150008A839B83C250D140CE5FDE4F88819981C4
:10116000AA81BB81C250D140F80180839183A283C0
:10117000B383CE018F579F4F20E030E040E85FE31C
:10118000DC016D917D918D919C910E94DA1D8823E7
:101190003CF4CE0187579F4F21E0FC0120839AC188
:1011A000CE018B579F4F20E03FEF4FE757E4DC0124
:1011B0006D917D918D919C910E94321F18160CF0BB
:1011C00023C1CE0183589F4F20E030E04AE754E42A
:1011D000FC0160817181828193810E94DF1DCA5F61
:1011E000DE4F688379838A839B83C650D140CA5F70
:1011F000DE4F88819981AA81BB81C650D1409E0172
:1012000026573F4FF90180839183A283B3838E01D8
:1012100002571F4FCE0186579F4F20E030E04AE72C
:1012200055E4DC016D917D918D919C910E94371F59
:10123000C65FDE4F688379838A839B83CA50D1401F
:10124000C65FDE4F88819981AA81BB81CA50D14097
:10125000F80180839183A283B383CE0182579F4F8D
:1012600020E030E040E85FE3DC016D917D918D91FD
:101270009C910E94DA1D88234CF4CE018E569F4F1C
:1012800021E030E0FC0131832083A2C0CE018257EF
:101290009F4F20E03FEF4FE757E4DC016D917D91D8
:1012A0008D919C910E94321F18160CF073C0CE01D4
:1012B00086579F4F20E030E040E251E4FC0160811E
:1012C0007181828193810E94371FC25FDE4F6883E4
:1012D00079838A839B83CE50D140C25FDE4F888161
:1012E0009981AA81BB81CE50D140CE52DF4F8883F5
:1012F0009983AA83BB83C25DD0408E010E561F4FD7
:10130000CE52DF4F688179818A819B81C25DD04056
:101310000E94511ECE5EDE4F688379838A839B8351
:10132000C251D140CE5EDE4FE881F981C251D14039
:10133000D801ED93FC9325C0CE018C569F4F20E938
:1013400031E0DC012D933C93CE018C569F4FFC0184
:10135000808191810197F1F79E012C563F4FD90171
:101360008D939C930000CE018E569F4F9E012E566A
:101370003F4FF9012081318121503109DC012D934A
:101380003C93CE018E569F4FFC0180819181892B29
:1013900099F639C08E010E561F4FCE0182579F4FCE
:1013A000DC016D917D918D919C910E94511ECA5ED0
:1013B000DE4F688379838A839B83C651D140CA5E9E
:1013C000DE4F88819981C651D140F8019183808395
:1013D000CE018A569F4F9E012E563F4FD9012D9127
:1013E0003C91FC0131832083CE018A569F4FDC0162
:1013F0008D919C910197F1F79E012A563F4FF9017B
:101400009183808300007EC0CE018F579F4F20E0E4
:1014100030E04FE753E4DC016D917D918D919C911B
:101420000E94321F1816D4F58E0108561F4FCE01A8
:101430008B579F4FFC0160817181828193810E9453
:10144000511EC65EDE4F688379838A839B83CA51AF
:10145000D140C65EDE4FE881F981CA51D140D80142
:10146000ED93FC93CE0186569F4F9E0128563F4F29
:10147000D9012D913C91FC0131832083CE01865608
:101480009F4FDC018D919C910197F1F79E012656AB
:101490003F4FF90191838083000034C08E010757CC
:1014A0001F4FCE018F579F4FDC016D917D918D9124
:1014B0009C910E94511EC25EDE4F688379838A83AD
:1014C0009B83CE51D140C25EDE4F8881CE51D14048
:1014D000F8018083CE0184569F4F9E0127573F4FCE
:1014E000D9012C91FC012083CE0184569F4FDC0151
:1014F0008C91282F2A95F1F7CE0184569F4FFC013D
:1015000020830000CE0183549F4FDC018C91829593
:101510008F708170482F63E080E00E949102CE01BD
:1015200083549F4FFC0180818295869587708170DE
:10153000482F64E080E00E949102CE0183549F4FC7
:10154000DC018C9182958695869583708170482FF9
:1015500065E080E00E949102CE0183549F4FFC0120
:101560008081881F8827881F482F66E080E00E94BE
:1015700091029E0121593F4F80E090E0A0E8BFE337
:10158000F90180839183A283B3838E010D581F4F8D
:10159000CE0181599F4F20E030E04AE755E4DC015D
:1015A0006D917D918D919C910E94371FCE5DDE4F94
:1015B000688379838A839B83C252D140CE5DDE4F9C
:1015C00088819981AA81BB81C252D140F801808370
:1015D0009183A283B383CE018D589F4F20E030E0EA
:1015E00040E85FE3DC016D917D918D919C910E94BB
:1015F000DA1D88234CF4CE0189589F4F21E030E05A
:10160000FC0131832083A2C0CE018D589F4F20E082
:101610003FEF4FE757E4DC016D917D918D919C91F7
:101620000E94321F18160CF073C0CE0181599F4FD3
:1016300020E030E040E251E4FC0160817181828170
:1016400093810E94371FCA5DDE4F688379838A8346
:101650009B83C652D140CA5DDE4F88819981AA81A1
:10166000BB81C652D140C253DF4F88839983AA837E
:10167000BB83CE5CD0408E0109581F4FC253DF4F51
:10168000688179818A819B81CE5CD0400E94511E05
:10169000C65DDE4F688379838A839B83CA52D140BB
:1016A000C65DDE4FE881F981CA52D140D801ED9381
:1016B000FC9325C0CE0187589F4F20E931E0DC0123
:1016C0002D933C93CE0187589F4FFC0180819181DF
:1016D0000197F1F79E0127583F4FD9018D939C93B5
:1016E0000000CE0189589F4F9E0129583F4FF901B4
:1016F0002081318121503109DC012D933C93CE01B1
:1017000089589F4FFC0180819181892B99F639C0BE
:101710008E0109581F4FCE018D589F4FDC016D91EE
:101720007D918D919C910E94511EC25DDE4F688318
:1017300079838A839B83CE52D140C25DDE4F8881FC
:101740009981CE52D140F80191838083CE01855892
:101750009F4F9E0129583F4FD9012D913C91FC018B
:1017600031832083CE0185589F4FDC018D919C9160
:101770000197F1F79E0125583F4FF901918380832E
:10178000000040E062E080E00E9491029E01215B47
:101790003F4F80E090E0A0E8BFE3F90180839183B0
:1017A000A283B3838E010D5A1F4FCE01815B9F4FE1
:1017B0002BEA3AEA4AEA50E4DC016D917D918D9181
:1017C0009C910E94371FCE5CDE4F688379838A83A9
:1017D0009B83C253D140CE5CDE4F88819981AA8120
:1017E000BB81C253D140F80180839183A283B3832C
:1017F0008E01095A1F4FCE01815B9F4F20E030E0E0
:1018000040E850E4DC016D917D918D919C910E94A6
:10181000371FCA5CDE4F688379838A839B83C653F4
:10182000D140CA5CDE4F88819981AA81BB81C653B1
:10183000D140F80180839183A283B383CE018D5A76
:101840009F4F20E030E040E85FE3DC016D917D9147
:101850008D919C910E94DA1D88233CF4CE01855A1B
:101860009F4F21E0FC0120839AC1CE01895A9F4FEE
:1018700020E03FEF4FE757E4DC016D917D918D91C2
:101880009C910E94321F18160CF023C1CE01815B7F
:101890009F4F20E030E04AE754E4FC016081718111
:1018A000828193810E94DF1DC65CDE4F688379834D
:1018B0008A839B83CA53D140C65CDE4F888199815D
:1018C000AA81BB81CA53D1409E01245A3F4FF901DE
:1018D00080839183A283B3838E01005A1F4FCE0170
:1018E000845A9F4F20E030E04AE755E4DC016D91D7
:1018F0007D918D919C910E94371FC25CDE4F688361
:1019000079838A839B83CE53D140C25CDE4F88812A
:101910009981AA81BB81CE53D140F8018083918304
:10192000A283B383CE01805A9F4F20E030E040E88D
:101930005FE3DC016D917D918D919C910E94DA1D98
:1019400088234CF4CE018C599F4F21E030E0FC01FC
:1019500031832083A2C0CE01805A9F4F20E03FEF09
:101960004FE757E4DC016D917D918D919C910E9430
:10197000321F18160CF073C0CE01845A9F4F20E01E
:1019800030E040E251E4FC01608171818281938109
:101990000E94371FCE5BDE4F688379838A839B83E7
:1019A000C254D140CE5BDE4F88819981AA81BB8130
:1019B000C254D140C653DF4F88839983AA83BB8327
:1019C000CA5CD0408E010C591F4FC653DF4F68814F
:1019D00079818A819B81CA5CD0400E94511ECA5B7A
:1019E000DE4F688379838A839B83C654D140CA5B68
:1019F000DE4FE881F981C654D140D801ED93FC93C4
:101A000025C0CE018A599F4F20E931E0DC012D939A
:101A10003C93CE018A599F4FFC01808191810197AF
:101A2000F1F79E012A593F4FD9018D939C930000F5
:101A3000CE018C599F4F9E012C593F4FF9012081B7
:101A4000318121503109DC012D933C93CE018C5919
:101A50009F4FFC0180819181892B99F639C08E01BD
:101A60000C591F4FCE01805A9F4FDC016D917D9123
:101A70008D919C910E94511EC65BDE4F68837983D5
:101A80008A839B83CA54D140C65BDE4F888199818B
:101A9000CA54D140F80191838083CE0188599F4F69
:101AA0009E012C593F4FD9012D913C91FC0131836E
:101AB0002083CE0188599F4FDC018D919C91019725
:101AC000F1F79E0128593F4FF9019183808300006F
:101AD0007EC0CE018D5A9F4F20E030E04FE753E4A7
:101AE000DC016D917D918D919C910E94321F1816A1
:101AF000D4F58E0106591F4FCE01895A9F4FFC0124
:101B000060817181828193810E94511EC25BDE4F90
:101B1000688379838A839B83CE54D140C25BDE4F36
:101B2000E881F981CE54D140D801ED93FC93CE01E8
:101B300084599F4F9E0126593F4FD9012D913C91C9
:101B4000FC0131832083CE0184599F4FDC018D91AC
:101B50009C910197F1F79E0124593F4FF901918320
:101B60008083000034C08E01055A1F4FCE018D5A6C
:101B70009F4FDC016D917D918D919C910E94511E32
:101B8000CE5ADE4F688379838A839B83C255D140C6
:101B9000CE5ADE4F8881C255D140F8018083CE01F4
:101BA00082599F4F9E01255A3F4FD9012C91FC012C
:101BB0002083CE0182599F4FDC018C91282F2A95DA
:101BC000F1F7CE0182599F4FFC012083000041E0D4
:101BD00062E080E00E94910280E090E0A0E8BFE334
:101BE0008FA798ABA9ABBAAB2BEA3AEA4AEA50E422
:101BF0006FA578A989A99AA90E94371FCA5ADE4FF2
:101C0000688379838A839B83C655D140CA5ADE4F45
:101C100088819981AA81BB81C655D1408BAB9CAB91
:101C2000ADABBEAB20E030E040E850E46FA578A952
:101C300089A99AA90E94371FC65ADE4F6883798303
:101C40008A839B83CA55D140C65ADE4F88819981C9
:101C5000AA81BB81CA55D1408FAB98AFA9AFBAAFAB
:101C600020E030E040E85FE36BA97CA98DA99EA944
:101C70000E94DA1D88231CF481E08BAF76C120E03E
:101C80003FEF4FE757E46FA978AD89AD9AAD0E9459
:101C9000321F18160CF013C120E030E04AE754E47C
:101CA0006FA578A989A99AA90E94DF1DC25ADE4FA3
:101CB000688379838A839B83CE55D140C25ADE4F95
:101CC00088819981AA81BB81CE55D1408CAF9DAFCF
:101CD000AEAFBFAF8E01005C1F4F20E030E04AE79F
:101CE00055E46CAD7DAD8EAD9FAD0E94371FCE59D2
:101CF000DE4F688379838A839B83C256D140CE5955
:101D0000DE4F88819981AA81BB81C256D140F801FA
:101D100080839183A283B383CE01805C9F4F20E0B8
:101D200030E040E85FE3DC016D917D918D919C9105
:101D30000E94DA1D88234CF4CE018C5B9F4F21E07A
:101D400030E0FC01318320839EC0CE01805C9F4F38
:101D500020E03FEF4FE757E4DC016D917D918D91DD
:101D60009C910E94321F18160CF06FC020E030E0EA
:101D700040E251E46CAD7DAD8EAD9FAD0E94371F4A
:101D8000CA59DE4F688379838A839B83C656D140C4
:101D9000CA59DE4F88819981AA81BB81C656D1403C
:101DA000CA53DF4F88839983AA83BB83C65CD04024
:101DB0008E010C5B1F4FCA53DF4F688179818A8186
:101DC0009B81C65CD0400E94511EC659DE4F68837D
:101DD00079838A839B83CA56D140C659DE4FE881F6
:101DE000F981CA56D140D801ED93FC9325C0CE01AC
:101DF0008A5B9F4F20E931E0DC012D933C93CE01BB
:101E00008A5B9F4FFC01808191810197F1F79E01D0
:101E10002A5B3F4FD9018D939C930000CE018C5BD0
:101E20009F4F9E012C5B3F4FF90120813181215052
:101E30003109DC012D933C93CE018C5B9F4FFC015B
:101E400080819181892B99F639C08E010C5B1F4FDF
:101E5000CE01805C9F4FDC016D917D918D919C91B5
:101E60000E94511EC259DE4F688379838A839B8307
:101E7000CE56D140C259DE4F88819981CE56D1408D
:101E8000F80191838083CE01885B9F4F9E012C5B7C
:101E90003F4FD9012D913C91FC0131832083CE012C
:101EA000885B9F4FDC018D919C910197F1F79E011A
:101EB000285B3F4FF9019183808300006AC020E0D6
:101EC00030E04FE753E46BA97CA98DA99EA90E943D
:101ED000321F1816B4F58E01065B1F4F6FA978AD3F
:101EE00089AD9AAD0E94511ECE58DE4F688379832A
:101EF0008A839B83C257D140CE58DE4FE881F98157
:101F0000C257D140D801ED93FC93CE01845B9F4F23
:101F10009E01265B3F4FD9012D913C91FC013183FD
:101F20002083CE01845B9F4FDC018D919C910197B2
:101F3000F1F79E01245B3F4FF901918380830000FC
:101F400028C06BA97CA98DA99EA90E94511ECA58C0
:101F5000DE4F688379838A839B83C657D140CA58F2
:101F6000DE4FF881C657D140FBAFCE01825B9F4F59
:101F70002BADDC012C93CE01825B9F4FFC01808155
:101F8000282F2A95F1F7CE01825B9F4FDC012C931D
:101F90000000CE0183549F4FFC0180818170482F47
:101FA00063E080E00E949102CE0183549F4FDC01E8
:101FB0008C9186958170482F64E080E00E949102A8
:101FC000CE0183549F4FFC01808186958695817058
:101FD000482F65E080E00E949102CE0183549F4F1C
:101FE000DC018C918695869586958170482F66E0F8
:101FF00080E00E94910280E090E0A0E8BFE389A326
:102000009AA3ABA3BCA320E030E04AE755E469A162
:102010007AA18BA19CA10E94371FC658DE4F68830E
:1020200079838A839B83CA57D140C658DE4F888103
:102030009981AA81BB81CA57D1408DA39EA3AFA32A
:10204000B8A720E030E040E85FE36DA17EA18FA15A
:1020500098A50E94DA1D88232CF481E090E09AA7CD
:1020600089A775C020E03FEF4FE757E46DA17EA13F
:102070008FA198A50E94321F18160CF052C020E0C4
:1020800030E040E251E469A17AA18BA19CA10E94B9
:10209000371FC258DE4F688379838A839B83CE576C
:1020A000D140C258DE4F88819981AA81BB81CE5729
:1020B000D140CE53DF4F88839983AA83BB83C25C10
:1020C000D040CE53DF4F688179818A819B81C25C89
:1020D000D0400E94511ECE57DE4F688379838A8399
:1020E0009B83C258D140CE57DE4FA881B981C258D8
:1020F000D140BAA7A9A710C080E991E09CA78BA7FF
:102100008BA59CA50197F1F79CA78BA7000089A53B
:102110009AA501979AA789A789A59AA5892B61F7FE
:1021200021C06DA17EA18FA198A50E94511ECA5702
:10213000DE4F688379838A839B83C658D140CA5710
:10214000DE4FE881F981C658D140FAA7E9A789A5F1
:102150009AA59EA78DA78DA59EA50197F1F79EA78D
:102160008DA7000040E062E080E00E94910280E0E4
:1021700090E0A0E8BFE389839A83AB83BC832BEA1A
:102180003AEA4AEA50E469817A818B819C810E9413
:10219000371FC657DE4F688379838A839B83CA586B
:1021A000D140C657DE4F88819981AA81BB81CA5828
:1021B000D1408D839E83AF83B88720E030E040E834
:1021C00050E469817A818B819C810E94371FC257BC
:1021D000DE4F688379838A839B83CE58D140C25770
:1021E000DE4F88819981AA81BB81CE58D1408987F1
:1021F0009A87AB87BC8720E030E040E85FE36D81E1
:102200007E818F8198850E94DA1D88231CF481E0ED
:102210008D871DC120E03FEF4FE757E469857A8540
:102220008B859C850E94321F18160CF0CEC020E0D2
:1022300030E04AE754E469817A818B819C810E9475
:10224000DF1DCE56DE4F688379838A839B83C25914
:10225000D140CE56DE4F88819981AA81BB81C25977
:10226000D1408E879F87A88BB98B20E030E04AE76A
:1022700055E46E857F85888999890E94371FCA56E3
:10228000DE4F688379838A839B83C659D140CA56BF
:10229000DE4F88819981AA81BB81C659D1408A8B42
:1022A0009B8BAC8BBD8B20E030E040E85FE36A891C
:1022B0007B898C899D890E94DA1D88232CF481E01A
:1022C00090E09F8B8E8B75C020E03FEF4FE757E487
:1022D0006A897B898C899D890E94321F18160CF0AF
:1022E00052C020E030E040E251E46E857F8588896D
:1022F00099890E94371FC656DE4F688379838A8387
:102300009B83CA59D140C656DE4F88819981AA81E4
:10231000BB81CA59D140C254DF4F88839983AA83B5
:10232000BB83CE5BD040C254DF4F688179818A8104
:102330009B81CE5BD0400E94511EC256DE4F688307
:1023400079838A839B83CE59D140C256DE4FA881C0
:10235000B981CE59D140BF8BAE8B10C080E991E0DE
:10236000998F888F888D998D0197F1F7998F888F34
:1023700000008E899F8901979F8B8E8B8E899F8904
:10238000892B61F721C06A897B898C899D890E948C
:10239000511ECE55DE4F688379838A839B83C25A50
:1023A000D140CE55DE4FE881F981C25AD140FF8B32
:1023B000EE8B8E899F899B8F8A8F8A8D9B8D01974B
:1023C000F1F79B8F8A8F000049C020E030E04FE793
:1023D00053E46D817E818F8198850E94321F18168B
:1023E00014F569857A858B859C850E94511ECA5596
:1023F000DE4F688379838A839B83C65AD140CA554E
:10240000DE4F88819981C65AD1409D8F8C8F8C8DEB
:102410009D8D9F8F8E8F8E8D9F8D0197F1F79F8F52
:102420008E8F00001BC06D817E818F8198850E94F8
:10243000511EC655DE4F688379838A839B83CA5AAF
:10244000D140C655DE4F9881CA5AD1409D878D85AF
:1024500088A388A18A95F1F788A300000000C355DE
:10246000DE4F0FB6F894DEBF0FBECDBFDF91CF9128
:102470001F910F9108950F931F93CF93DF93CDB7C3
:10248000DEB7C156D1400FB6F894DEBF0FBECDBF48
:102490009E0127563F4FD9018C9341E061E080E0D7
:1024A0000E9491029E0125573F4F80E090E0A0E8F6
:1024B000BFE3F90180839183A283B3838E01015727
:1024C0001F4FCE0185579F4F20E030E04AE755E48B
:1024D000DC016D917D918D919C910E94371FCA54B2
:1024E000DF4F688379838A839B83C65BD040CA545D
:1024F000DF4F88819981AA81BB81C65BD040F801FA
:1025000080839183A283B383CE0181579F4F20E0C4
:1025100030E040E85FE3DC016D917D918D919C910D
:102520000E94DA1D88234CF4CE018D569F4F21E086
:1025300030E0FC0131832083A2C0CE0181579F4F40
:1025400020E03FEF4FE757E4DC016D917D918D91E5
:102550009C910E94321F18160CF073C0CE01855753
:102560009F4F20E030E040E251E4FC016081718146
:10257000828193810E94371FC654DF4F688379831D
:102580008A839B83CA5BD040C654DF4F8881998180
:10259000AA81BB81CA5BD040CE54DF4F8883998328
:1025A000AA83BB83C25BD0408E010D561F4FCE5411
:1025B000DF4F688179818A819B81C25BD0400E9414
:1025C000511EC254DF4F688379838A839B83CE5B1D
:1025D000D040C254DF4FE881F981CE5BD040D801B2
:1025E000ED93FC9325C0CE018B569F4F20E931E03F
:1025F000DC012D933C93CE018B569F4FFC018081D3
:1026000091810197F1F79E012B563F4FD9018D9390
:102610009C930000CE018D569F4F9E012D563F4F3B
:10262000F9012081318121503109DC012D933C9346
:10263000CE018D569F4FFC0180819181892B99F6A7
:1026400039C08E010D561F4FCE0181579F4FDC01BF
:102650006D917D918D919C910E94511ECE53DF4FC3
:10266000688379838A839B83C25CD040CE53DF4FDB
:1026700088819981C25CD040F80191838083CE012A
:1026800089569F4F9E012D563F4FD9012D913C9168
:10269000FC0131832083CE0189569F4FDC018D914F
:1026A0009C910197F1F79E0129563F4FF9019183C3
:1026B0008083000041E062E080E00E9491029E0180
:1026C00023583F4F80E090E0A0E8BFE3F90180830A
:1026D0009183A283B3838E010F571F4FCE0183587E
:1026E0009F4F20E030E04AE755E4DC016D917D9199
:1026F0008D919C910E94371FCA53DF4F6883798365
:102700008A839B83C65CD040CA53DF4F88819981FE
:10271000AA81BB81C65CD040F80180839183A283EB
:10272000B383CE018F579F4F20E030E040E85FE356
:10273000DC016D917D918D919C910E94DA1D882321
:102740004CF4CE018B579F4F21E030E0FC013183E8
:102750002083A2C0CE018F579F4F20E03FEF4FE76D
:1027600057E4DC016D917D918D919C910E94321F07
:1027700018160CF073C0CE0183589F4F20E030E054
:1027800040E251E4FC0160817181828193810E9469
:10279000371FC653DF4F688379838A839B83CA5C64
:1027A000D040C653DF4F88819981AA81BB81CA5C22
:1027B000D040C255DF4F88839983AA83BB83CE5A0A
:1027C000D0408E010B571F4FC255DF4F6881798172
:1027D0008A819B81CE5AD0400E94511EC253DF4F46
:1027E000688379838A839B83CE5CD040C253DF4F5A
:1027F000E881F981CE5CD040D801ED93FC9325C0EF
:10280000CE0189579F4F20E931E0DC012D933C93A5
:10281000CE0189579F4FFC01808191810197F1F78B
:102820009E0129573F4FD9018D939C930000CE0103
:102830008B579F4F9E012B573F4FF90120813181CC
:1028400021503109DC012D933C93CE018B579F4FD2
:10285000FC0180819181892B99F639C08E010B573B
:102860001F4FCE018F579F4FDC016D917D918D9150
:102870009C910E94511ECE52DF4F688379838A83D8
:102880009B83C25DD040CE52DF4F88819981C25D6B
:10289000D040F80191838083CE0187579F4F9E01DE
:1028A0002B573F4FD9012D913C91FC01318320835F
:1028B000CE0187579F4FDC018D919C910197F1F7D5
:1028C0009E0127573F4FF901918380830000CE017D
:1028D00087569F4FDC018C9182958F708170482FB5
:1028E00063E080E00E949102CE0187569F4FFC0179
:1028F00080818295869587708170482F64E080E0A2
:102900000E949102CE0187569F4FDC018C918295E7
:102910008695869583708170482F65E080E00E94DF
:102920009102CE0187569F4FFC018081881F882726
:10293000881F482F66E080E00E9491029E01215985
:102940003F4F80E090E0A0E8BFE3F90180839183EE
:10295000A283B3838E010D581F4FCE0181599F4F23
:1029600020E030E04AE755E4DC016D917D918D91E6
:102970009C910E94371FCA52DF4F688379838A83F4
:102980009B83C65DD040CA52DF4F88819981AA815E
:10299000BB81C65DD040F80180839183A283B3835D
:1029A000CE018D589F4F20E030E040E85FE3DC012E
:1029B0006D917D918D919C910E94DA1D88234CF43C
:1029C000CE0189589F4F21E030E0FC013183208304
:1029D000A2C0CE018D589F4F20E03FEF4FE757E454
:1029E000DC016D917D918D919C910E94321F181692
:1029F0000CF073C0CE0181599F4F20E030E040E2DF
:102A000051E4FC0160817181828193810E94371FB2
:102A1000C652DF4F688379838A839B83CA5DD04027
:102A2000C652DF4F88819981AA81BB81CA5DD0409F
:102A3000C655DF4F88839983AA83BB83CA5AD04087
:102A40008E0109581F4FC655DF4F688179818A81F1
:102A50009B81CA5AD0400E94511EC252DF4F6883E8
:102A600079838A839B83CE5DD040C252DF4FE88159
:102A7000F981CE5DD040D801ED93FC9325C0CE0105
:102A800087589F4F20E931E0DC012D933C93CE0124
:102A900087589F4FFC01808191810197F1F79E013A
:102AA00027583F4FD9018D939C930000CE01895840
:102AB0009F4F9E0129583F4FF901208131812150BC
:102AC0003109DC012D933C93CE0189589F4FFC01C5
:102AD00080819181892B99F639C08E0109581F4F49
:102AE000CE018D589F4FDC016D917D918D919C9110
:102AF0000E94511ECE51DF4F688379838A839B8366
:102B0000C25ED040CE51DF4F88819981C25ED040F5
:102B1000F80191838083CE0185589F4F9E012958EB
:102B20003F4FD9012D913C91FC0131832083CE018F
:102B300085589F4FDC018D919C910197F1F79E0183
:102B400025583F4FF90191838083000040E062E007
:102B500080E00E9491029E01215B3F4F80E090E067
:102B6000A0E8BFE3F90180839183A283B3838E0140
:102B70000D5A1F4FCE01815B9F4F2BEA3AEA4AEA7A
:102B800050E4DC016D917D918D919C910E94371FE5
:102B9000CA51DF4F688379838A839B83C65ED040A6
:102BA000CA51DF4F88819981AA81BB81C65ED0401E
:102BB000F80180839183A283B3838E01095A1F4F4A
:102BC000CE01815B9F4F20E030E040E850E4DC0123
:102BD0006D917D918D919C910E94371FC651DF4F61
:102BE000688379838A839B83CA5ED040C651DF4F56
:102BF00088819981AA81BB81CA5ED040F801808317
:102C00009183A283B383CE018D5A9F4F20E030E0A1
:102C100040E85FE3DC016D917D918D919C910E9474
:102C2000DA1D88233CF4CE01855A9F4F21E0FC0138
:102C300020839AC1CE01895A9F4F20E03FEF4FE792
:102C400057E4DC016D917D918D919C910E94321F22
:102C500018160CF023C1CE01815B9F4F20E030E0BD
:102C60004AE754E4FC0160817181828193810E9472
:102C7000DF1DC251DF4F688379838A839B83CE5ED9
:102C8000D040C251DF4F88819981AA81BB81CE5E3D
:102C9000D0409E01245A3F4FF90180839183A28343
:102CA000B3838E01005A1F4FCE01845A9F4F20E0FC
:102CB00030E04AE755E4DC016D917D918D919C9166
:102CC0000E94371FCE50DF4F688379838A839B83AE
:102CD000C25FD040CE50DF4F88819981AA81BB81ED
:102CE000C25FD040F80180839183A283B383CE0179
:102CF000805A9F4F20E030E040E85FE3DC016D91B7
:102D00007D918D919C910E94DA1D88234CF4CE0117
:102D10008C599F4F21E030E0FC0131832083A2C019
:102D2000CE01805A9F4F20E03FEF4FE757E4DC0190
:102D30006D917D918D919C910E94321F18160CF01F
:102D400073C0CE01845A9F4F20E030E040E251E44E
:102D5000FC0160817181828193810E94371FCA507A
:102D6000DF4F688379838A839B83C65FD040CA50D4
:102D7000DF4F88819981AA81BB81C65FD040CA5547
:102D8000DF4F88839983AA83BB83C65AD0408E01C4
:102D90000C591F4FCA55DF4F688179818A819B8109
:102DA000C65AD0400E94511EC650DF4F68837983B7
:102DB0008A839B83CA5FD040C650DF4FE881F98188
:102DC000CA5FD040D801ED93FC9325C0CE018A594B
:102DD0009F4F20E931E0DC012D933C93CE018A59CD
:102DE0009F4FFC01808191810197F1F79E012A5943
:102DF0003F4FD9018D939C930000CE018C599F4F7A
:102E00009E012C593F4FF901208131812150310918
:102E1000DC012D933C93CE018C599F4FFC018081A6
:102E20009181892B99F639C08E010C591F4FCE0123
:102E3000805A9F4FDC016D917D918D919C910E94F4
:102E4000511EC250DF4F688379838A839B83CE5F94
:102E5000D040C250DF4F88819981CE5FD040F801C9
:102E600091838083CE0188599F4F9E012C593F4FFB
:102E7000D9012D913C91FC0131832083CE018859E9
:102E80009F4FDC018D919C910197F1F79E0128598C
:102E90003F4FF9019183808300007EC0CE018D5A9F
:102EA0009F4F20E030E04FE753E4DC016D917D91CE
:102EB0008D919C910E94321F1816D4F58E010659EF
:102EC0001F4FCE01895A9F4FFC0160817181828121
:102ED00093810E94511ECE5FDE4F688379838A837F
:102EE0009B83C250D140CE5FDE4FE881F981C25052
:102EF000D140D801ED93FC93CE0184599F4F9E01A0
:102F000026593F4FD9012D913C91FC0131832083FB
:102F1000CE0184599F4FDC018D919C910197F1F76F
:102F20009E0124593F4FF90191838083000034C0F2
:102F30008E01055A1F4FCE018D5A9F4FDC016D91B6
:102F40007D918D919C910E94511ECA5FDE4F6883D6
:102F500079838A839B83C650D140CA5FDE4F8881C4
:102F6000C650D140F8018083CE0182599F4F9E0107
:102F7000255A3F4FD9012C91FC012083CE01825963
:102F80009F4FDC018C91282F2A95F1F7CE018259B1
:102F90009F4FFC012083000041E062E080E00E943E
:102FA000910280E090E0A0E8BFE38FA798ABA9ABC7
:102FB000BAAB2BEA3AEA4AEA50E46FA578A989A9A4
:102FC0009AA90E94371FC65FDE4F688379838A8380
:102FD0009B83CA50D140C65FDE4F88819981AA8108
:102FE000BB81CA50D1408BAB9CABADABBEAB20E03C
:102FF00030E040E850E46FA578A989A99AA90E9419
:10300000371FC25FDE4F688379838A839B83CE50EC
:10301000D140C25FDE4F88819981AA81BB81CE50A9
:10302000D1408FAB98AFA9AFBAAF20E030E040E815
:103030005FE36BA97CA98DA99EA90E94DA1D882354
:103040001CF481E08BAF76C120E03FEF4FE757E4FF
:103050006FA978AD89AD9AAD0E94321F18160CF099
:1030600013C120E030E04AE754E46FA578A989A9AC
:103070009AA90E94DF1DCE5EDE4F688379838A8322
:103080009B83C251D140CE5EDE4F88819981AA8157
:10309000BB81C251D1408CAF9DAFAEAFBFAF8E01EF
:1030A000005C1F4F20E030E04AE755E46CAD7DAD99
:1030B0008EAD9FAD0E94371FCA5EDE4F6883798355
:1030C0008A839B83C651D140CA5EDE4F8881998135
:1030D000AA81BB81C651D140F80180839183A2832C
:1030E000B383CE01805C9F4F20E030E040E85FE397
:1030F000DC016D917D918D919C910E94DA1D882358
:103100004CF4CE018C5B9F4F21E030E0FC01318319
:1031100020839EC0CE01805C9F4F20E03FEF4FE7B1
:1031200057E4DC016D917D918D919C910E94321F3D
:1031300018160CF06FC020E030E040E251E46CADB6
:103140007DAD8EAD9FAD0E94371FC65EDE4F68839A
:1031500079838A839B83CA51D140C65EDE4F8881C2
:103160009981AA81BB81CA51D140CE55DF4F888356
:103170009983AA83BB83C25AD0408E010C5B1F4F38
:10318000CE55DF4F688179818A819B81C25AD040B8
:103190000E94511EC25EDE4F688379838A839B83BF
:1031A000CE51D140C25EDE4FE881F981CE51D1408F
:1031B000D801ED93FC9325C0CE018A5B9F4F20E997
:1031C00031E0DC012D933C93CE018A5B9F4FFC01E3
:1031D000808191810197F1F79E012A5B3F4FD901D0
:1031E0008D939C930000CE018C5B9F4F9E012C5BC6
:1031F0003F4FF9012081318121503109DC012D93AC
:103200003C93CE018C5B9F4FFC0180819181892B87
:1032100099F639C08E010C5B1F4FCE01805C9F4F29
:10322000DC016D917D918D919C910E94511ECE5D2E
:10323000DE4F688379838A839B83C252D140CE5DFF
:10324000DE4F88819981C252D140F80191838083F9
:10325000CE01885B9F4F9E012C5B3F4FD9012D9182
:103260003C91FC0131832083CE01885B9F4FDC01C0
:103270008D919C910197F1F79E01285B3F4FF901D9
:103280009183808300006AC020E030E04FE753E480
:103290006BA97CA98DA99EA90E94321F1816B4F5AE
:1032A0008E01065B1F4F6FA978AD89AD9AAD0E9464
:1032B000511ECA5DDE4F688379838A839B83C65221
:1032C000D140CA5DDE4FE881F981C652D140D801B4
:1032D000ED93FC93CE01845B9F4F9E01265B3F4F95
:1032E000D9012D913C91FC0131832083CE01845B77
:1032F0009F4FDC018D919C910197F1F79E01245B1A
:103300003F4FF90191838083000028C06BA97CA9FD
:103310008DA99EA90E94511EC65DDE4F68837983E8
:103320008A839B83CA52D140C65DDE4FF881CA5260
:10333000D140FBAFCE01825B9F4F2BADDC012C93C4
:10334000CE01825B9F4FFC018081282F2A95F1F7E7
:10335000CE01825B9F4FDC012C930000CE0187568B
:103360009F4FFC0180818170482F63E080E00E94C4
:103370009102CE0187569F4FDC018C91869581701A
:10338000482F64E080E00E949102CE0187569F4F53
:10339000FC018081869586958170482F65E080E0EC
:1033A0000E949102CE0187569F4FDC018C91869539
:1033B000869586958170482F66E080E00E94910294
:1033C00080E090E0A0E8BFE389A39AA3ABA3BCA3ED
:1033D00020E030E04AE755E469A17AA18BA19CA1E5
:1033E0000E94371FC25DDE4F688379838A839B8387
:1033F000CE52D140C25DDE4F88819981AA81BB81C6
:10340000CE52D1408DA39EA3AFA3B8A720E030E059
:1034100040E85FE36DA17EA18FA198A50E94DA1D0F
:1034200088232CF481E090E09AA789A775C020E05A
:103430003FEF4FE757E46DA17EA18FA198A50E94B1
:10344000321F18160CF052C020E030E040E251E488
:1034500069A17AA18BA19CA10E94371FCE5CDE4F8F
:10346000688379838A839B83C253D140CE5CDE4FCD
:1034700088819981AA81BB81C253D140C256DF4F56
:1034800088839983AA83BB83CE59D040C256DF4F2D
:10349000688179818A819B81CE59D0400E94511EDA
:1034A000CA5CDE4F688379838A839B83C653D1408D
:1034B000CA5CDE4FA881B981C653D140BAA7A9A77B
:1034C00010C080E991E09CA78BA78BA59CA50197D4
:1034D000F1F79CA78BA7000089A59AA501979AA749
:1034E00089A789A59AA5892B61F721C06DA17EA125
:1034F0008FA198A50E94511EC65CDE4F6883798318
:103500008A839B83CA53D140C65CDE4FE881F98130
:10351000CA53D140FAA7E9A789A59AA59EA78DA766
:103520008DA59EA50197F1F79EA78DA7000040E00D
:1035300062E080E00E94910280E090E0A0E8BFE3BA
:1035400089839A83AB83BC832BEA3AEA4AEA50E444
:1035500069817A818B819C810E94371FC25CDE4F1A
:10356000688379838A839B83CE53D140C25CDE4FCC
:1035700088819981AA81BB81CE53D1408D839E835E
:10358000AF83B88720E030E040E850E469817A8179
:103590008B819C810E94371FCE5BDE4F68837983CD
:1035A0008A839B83C254D140CE5BDE4F8881998150
:1035B000AA81BB81C254D14089879A87AB87BC87D7
:1035C00020E030E040E85FE36D817E818F81988567
:1035D0000E94DA1D88231CF481E08D871DC120E044
:1035E0003FEF4FE757E469857A858B859C850E947C
:1035F000321F18160CF0CEC020E030E04AE754E449
:1036000069817A818B819C810E94DF1DCA5BDE4FBC
:10361000688379838A839B83C654D140CA5BDE4F1B
:1036200088819981AA81BB81C654D1408E879F87AA
:10363000A88BB98B20E030E04AE755E46E857F85A2
:10364000888999890E94371FC65BDE4F688379831A
:103650008A839B83CA54D140C65BDE4F888199819F
:10366000AA81BB81CA54D1408A8B9B8BAC8BBD8B0A
:1036700020E030E040E85FE36A897B898C899D899E
:103680000E94DA1D88232CF481E090E09F8B8E8BC2
:1036900075C020E03FEF4FE757E46A897B898C894A
:1036A0009D890E94321F18160CF052C020E030E0B5
:1036B00040E251E46E857F85888999890E94371F91
:1036C000C25BDE4F688379838A839B83CE54D1406B
:1036D000C25BDE4F88819981AA81BB81CE54D140E3
:1036E000C656DF4F88839983AA83BB83CA59D040CB
:1036F000C656DF4F688179818A819B81CA59D04043
:103700000E94511ECE5ADE4F688379838A839B8341
:10371000C255D140CE5ADE4FA881B981C255D140A1
:10372000BF8BAE8B10C080E991E0998F888F888D18
:10373000998D0197F1F7998F888F00008E899F8965
:1037400001979F8B8E8B8E899F89892B61F721C072
:103750006A897B898C899D890E94511ECA5ADE4FD5
:10376000688379838A839B83C655D140CA5ADE4FCA
:10377000E881F981C655D140FF8BEE8B8E899F89F8
:103780009B8F8A8F8A8D9B8D0197F1F79B8F8A8FF4
:10379000000049C020E030E04FE753E46D817E81B6
:1037A0008F8198850E94321F181614F569857A85D5
:1037B0008B859C850E94511EC65ADE4F6883798393
:1037C0008A839B83CA55D140C65ADE4F888199812E
:1037D000CA55D1409D8F8C8F8C8D9D8D9F8F8E8FE4
:1037E0008E8D9F8D0197F1F79F8F8E8F00001BC0EC
:1037F0006D817E818F8198850E94511EC25ADE4F55
:10380000688379838A839B83CE55D140C25ADE4F29
:103810009881CE55D1409D878D8588A388A18A95B2
:10382000F1F788A300000000CF59DE4F0FB6F894DF
:10383000DEBF0FBECDBFDF91CF911F910F910895D5
:10384000CF93DF9300D00F92CDB7DEB79B838A83EF
:1038500019820EC08981882F90E02A813B81820FD6
:10386000931FFC0180810E943B1289818F5F8983B5
:103870008981882F90E02A813B81820F931FFC0170
:103880008081882339F7000000000F900F900F907F
:10389000DF91CF910895CF93DF93CDB7DEB76297D5
:1038A0000FB6F894DEBF0FBECDBF9A8B898B898986
:1038B0009A894AE050E09E012F5F3F4FB9010E9474
:1038C000A41FCE0101960E94201C000062960FB634
:1038D000F894DEBF0FBECDBFDF91CF910895CF9397
:1038E000DF9300D00F92CDB7DEB78A836B838A81D6
:1038F000882F90E083309105C9F084309105D4F48D
:103900008230910579F083309105A4F4009719F085
:10391000019721F00FC08B8189830CC08B81805C63
:10392000898308C08B81805F898304C08B81805C20
:1039300089830000898180680E94240600000F901E
:103940000F900F90DF91CF910895CF93DF9300D028
:1039500000D0CDB7DEB789836A835C834B836A81ED
:1039600089810E946F1C8B819C810E94201C000019
:103970000F900F900F900F90DF91CF910895CF93FC
:10398000DF93CDB7DEB781E00E9424060000DF910F
:10399000CF910895CF93DF93CDB7DEB7C354D1094C
:1039A0000FB6F894DEBF0FBECDBF1D8A84E08E8BAC
:1039B000CE0145960E944B0487E00E947C0487E676
:1039C00090E09B8F8A8F83E08F8B188E198ECE01AB
:1039D00047960E9441000E94BE0480E690E00E944B
:1039E000201C87E00E947C049A83898349815A8144
:1039F0002EEE32E0429FC001439F900D529F900DEA
:103A000011249C0140E050E028A739A74AA75BA7F2
:103A100068A579A58AA59BA50E94801E6C8F7D8FC5
:103A20008E8F9F8F20E030ED4FEB54E46C8D7D8DB9
:103A30008E8D9F8D0E94DF1D6CA77DA78EA79FA7EF
:103A40008CA59DA5AEA5BFA588A399A3AAA3BBA33A
:103A500068A179A18AA19BA10E94511E68AB79AB94
:103A60008AAB9BABA8A9B9A9BC83AB838B810E940D
:103A7000D2000E94ED00882F90E09E838D8360E04D
:103A800081E00E946F1C8D819E810E944B1C80E012
:103A900090E0A8ECB2E48F839887A987BA8720E0EA
:103AA00030E04AE755E46F81788589859A850E94E0
:103AB000371F6CAB7DAB8EAB9FAB2CA93DA94EA93C
:103AC0005FA92B873C874D875E8720E030E040E888
:103AD0005FE36B857C858D859E850E94DA1D88233A
:103AE0002CF481E090E0988B8F8758C020E03FEF66
:103AF0004FE757E46B857C858D859E850E94321F3C
:103B00001816D4F520E030E040E251E46F8178856A
:103B100089859A850E94371F68AF79AF8AAF9BAFBE
:103B200088AD99ADAAADBBAD8CA39DA3AEA3BFA339
:103B30006CA17DA18EA19FA10E94511E6CAF7DAF93
:103B40008EAF9FAFACADBDADB88BAF8710C080E975
:103B500091E09A8B898B89899A890197F1F79A8BE1
:103B6000898B00008F8598890197988B8F878F8527
:103B70009889892B61F71DC06B857C858D859E8515
:103B80000E94511E24966CAF7DAF8EAF9FAF2497DD
:103B900022962EAD3FAD2297388B2F878F8598893F
:103BA0009C8B8B8B8B899C890197F1F79C8B8B8BE2
:103BB000000017CF0E94BD1E08F481E008950E9406
:103BC000F31D0C94F81E0E94F11E58F00E94EA1E8C
:103BD00040F029F45F3F29F00C94E11E51110C9440
:103BE0002C1F0C94E71E0E94091F68F39923B1F360
:103BF000552391F3951B550BBB27AA276217730713
:103C0000840738F09F5F5F4F220F331F441FAA1FA6
:103C1000A9F335D00E2E3AF0E0E832D09150504062
:103C2000E695001CCAF72BD0FE2F29D0660F771F10
:103C3000881FBB1F261737074807AB07B0E809F0F6
:103C4000BB0B802DBF01FF2793585F4F3AF09E3F7B
:103C5000510578F00C94E11E0C942C1F5F3FE4F3A7
:103C6000983ED4F3869577956795B795F7959F5FBE
:103C7000C9F7880F911D9695879597F90895E1E00A
:103C8000660F771F881FBB1F621773078407BA0769
:103C900020F0621B730B840BBA0BEE1F88F7E095C4
:103CA00008950E94111F88F09F5798F0B92F992707
:103CB000B751B0F0E1F0660F771F881F991F1AF017
:103CC000BA95C9F714C0B13091F00E942B1FB1E032
:103CD00008950C942B1F672F782F8827B85F39F031
:103CE000B93FCCF3869577956795B395D9F73EF4B0
:103CF00090958095709561957F4F8F4F9F4F089558
:103D0000E89409C097FB3EF4909580957095619575
:103D10007F4F8F4F9F4F9923A9F0F92F96E9BB272B
:103D20009395F695879577956795B795F111F8CFA7
:103D3000FAF4BB0F11F460FF1BC06F5F7F4F8F4F12
:103D40009F4F16C0882311F096E911C0772321F008
:103D50009EE8872F762F05C0662371F096E8862FA0
:103D600070E060E02AF09A95660F771F881FDAF7F7
:103D7000880F9695879597F90895990F0008550F24
:103D8000AA0BE0E8FEEF16161706E807F907C0F0E1
:103D900012161306E407F50798F0621B730B840BE9
:103DA000950B39F40A2661F0232B242B252B21F4C3
:103DB00008950A2609F4A140A6958FEF811D811D63
:103DC000089597F99F6780E870E060E008959FEF9D
:103DD00080EC089500240A941616170618060906A2
:103DE000089500240A941216130614060506089571
:103DF000092E0394000C11F4882352F0BB0F40F4F9
:103E0000BF2B11F460FF04C06F5F7F4F8F4F9F4F38
:103E1000089557FD9058440F551F59F05F3F71F0BA
:103E20004795880F97FB991F61F09F3F79F0879521
:103E30000895121613061406551FF2CF4695F1DFAA
:103E400008C0161617061806991FF1CF869571053A
:103E5000610508940895E894BB2766277727CB016E
:103E600097F908950E94BD1E08F48FEF08950E94EF
:103E70004A1F0C94F81E0E94EA1E38F00E94F11EA0
:103E800020F0952311F00C94E11E0C94E71E1124F0
:103E90000C942C1F0E94091F70F3959FC1F3950F7E
:103EA00050E0551F629FF001729FBB27F00DB11DBE
:103EB000639FAA27F00DB11DAA1F649F6627B00D4E
:103EC000A11D661F829F2227B00DA11D621F739F37
:103ED000B00DA11D621F839FA00D611D221F749F45
:103EE0003327A00D611D231F849F600D211D822F8C
:103EF000762F6A2F11249F5750409AF0F1F08823B3
:103F00004AF0EE0FFF1FBB1F661F771F881F9150DF
:103F10005040A9F79E3F510580F00C94E11E0C948F
:103F20002C1F5F3FE4F3983ED4F386957795679511
:103F3000B795F795E7959F5FC1F7FE2B880F911D09
:103F40009695879597F908954532510520F44230AA
:103F500010F00C94AF1FFB011082CB010895BB271A
:103F60004A3031F4992322F4BDE2909581959F4F18
:103F70000C94BB1FBB27FB015527AA27880F991F4D
:103F8000AA1FA41710F0A41B83955051B9F7A05D88
:103F9000AA3308F0A95DA193009779F7B111B19305
:103FA0001192CB010C94D41FDC01FC01672F71919D
:103FB0007723E1F7329704C07C916D93708362910F
:0C3FC000AE17BF07C8F30895F894FFCFB8
:0E3FCC0054656D70657261747572653D00001C
:00000001FF
